{
  "contractName": "Exchange",
  "abi": [
    {
      "inputs": [
        {
          "internalType": "address",
          "name": "_feeAccount",
          "type": "address"
        },
        {
          "internalType": "uint256",
          "name": "_feePercent",
          "type": "uint256"
        }
      ],
      "stateMutability": "nonpayable",
      "type": "constructor"
    },
    {
      "inputs": [],
      "name": "feeAccount",
      "outputs": [
        {
          "internalType": "address",
          "name": "",
          "type": "address"
        }
      ],
      "stateMutability": "view",
      "type": "function"
    },
    {
      "inputs": [],
      "name": "feePercent",
      "outputs": [
        {
          "internalType": "uint256",
          "name": "",
          "type": "uint256"
        }
      ],
      "stateMutability": "view",
      "type": "function"
    },
    {
      "inputs": [
        {
          "internalType": "address",
          "name": "",
          "type": "address"
        },
        {
          "internalType": "address",
          "name": "",
          "type": "address"
        }
      ],
      "name": "tokens",
      "outputs": [
        {
          "internalType": "uint256",
          "name": "",
          "type": "uint256"
        }
      ],
      "stateMutability": "view",
      "type": "function"
    },
    {
      "inputs": [
        {
          "internalType": "address",
          "name": "_token",
          "type": "address"
        },
        {
          "internalType": "uint256",
          "name": "_amount",
          "type": "uint256"
        }
      ],
      "name": "depositToken",
      "outputs": [],
      "stateMutability": "nonpayable",
      "type": "function"
    }
  ],
  "bytecode": "0x608060405234801561001057600080fd5b506040516103543803806103548339818101604052604081101561003357600080fd5b50805160209091015160008054600160a060020a031916600160a060020a039093169290921782556001556102e690819061006e90396000f3fe608060405234801561001057600080fd5b5060043610610068577c01000000000000000000000000000000000000000000000000000000006000350463338b5dea811461006d578063508493bc1461009b57806365e17c9d146100db5780637fd6f15c146100ff575b600080fd5b6100996004803603604081101561008357600080fd5b50600160a060020a038135169060200135610107565b005b6100c9600480360360408110156100b157600080fd5b50600160a060020a0381358116916020013516610203565b60408051918252519081900360200190f35b6100e3610220565b60408051600160a060020a039092168252519081900360200190f35b6100c961022f565b604080517f23b872dd000000000000000000000000000000000000000000000000000000008152336004820152306024820152604481018390529051600160a060020a038416916323b872dd9160648083019260209291908290030181600087803b15801561017557600080fd5b505af1158015610189573d6000803e3d6000fd5b505050506040513d602081101561019f57600080fd5b50516101aa57600080fd5b600160a060020a03821660009081526002602090815260408083203384529091529020546101d89082610235565b600160a060020a03909216600090815260026020908152604080832033845290915290209190915550565b600260209081526000928352604080842090915290825290205481565b600054600160a060020a031681565b60015481565b6000828201838110156102a957604080517f08c379a000000000000000000000000000000000000000000000000000000000815260206004820152601b60248201527f536166654d6174683a206164646974696f6e206f766572666c6f770000000000604482015290519081900360640190fd5b939250505056fea26469706673582212207388fdd5b1b39993e9d9517ab05656e41dc747854aa91c009efa6f6608c1404c64736f6c63430007060033",
  "immutableReferences": {},
  "source": "// SPDX-License-Identifier: MIT\npragma solidity >=0.6.0 <0.8.0;\n\nimport \"./Token.sol\";\nimport \"openzeppelin-solidity/contracts/math/SafeMath.sol\";\n\n// Deposit & Withdraw Funds\n// Manage Orders - Make or Cancel\n// Handle Trades - Charge fees\n\n// TODO:\n// [X] Set the fee account\n// [] Deposit Ether\n// [] Withdraw Ether\n// [] Deposit tokens\n// [] Withdraw tokens\n// [] Check Balances\n// [] Make order\n// [] Cancel order\n// [] Fill order\n// [] Charge fees\n\ncontract Exchange {\n  using SafeMath for uint;\n\n  // Variables\n  address public feeAccount; // the account that receives exchange fees\n  uint256 public feePercent; // the fee percentage\n  mapping(address => mapping(address => uint256)) public tokens;\n\n  constructor(address _feeAccount, uint256 _feePercent) {\n    feeAccount = _feeAccount;\n    feePercent = _feePercent;\n  }\n\n  function depositToken(address _token, uint _amount) public {\n    // Send tokens to this contract\n    require(Token(_token).transferFrom(msg.sender, address(this), _amount));\n    tokens[_token][msg.sender] = tokens[_token][msg.sender].add(_amount);\n\n    // Manage deposit - update balance\n\n\n    // Emit event\n  }\n}\n",
  "sourcePath": "/Users/ryan/code/dapps/blockchain-dev-bootcamp/src/contracts/Exchange.sol",
  "compiler": {
    "name": "solc",
    "version": "0.7.6+commit.7338295f.Emscripten.clang"
  },
  "schemaVersion": "3.3.4",
  "updatedAt": "2021-02-16T21:29:48.067Z",
  "devdoc": {
    "kind": "dev",
    "methods": {},
    "version": 1
  },
  "userdoc": {
    "kind": "user",
    "methods": {},
    "version": 1
  }
}